:020000040000FA
:100000000C9454050C947C050C947C050C947C0594
:100010000C947C050C947C050C947C050C947D1848
:100020000C947C050C947C050C947C050C947C054C
:100030000C947C050C947C050C947C050C947C053C
:100040000C9431190C947C050C94FF180C94D9185D
:100050000C947C050C947C050C947C050C947C051C
:100060000C947B190C947C0500000000003E5B4F53
:100070005B3E3E6B4F6B3E1C3E7C3E1C183C7E3C08
:10008000181C577D571C1C5E7F5E1C00183C180016
:10009000FFE7C3E7FF0018241800FFE7DBE7FF30A6
:1000A000483A060E2629792926407F050507407F14
:1000B00005253F5A3CE73C5A7F3E1C1C08081C1C87
:1000C0003E7F14227F22145F5F005F5F06097F017D
:1000D0007F006689956A606060606094A2FFA29468
:1000E00008047E040810207E201008082A1C080836
:1000F0001C2A08081E101010100C1E0C1E0C303884
:100100003E3830060E3E0E06000000000000005F84
:1001100000000007000700147F147F14242A7F2AA0
:100120001223130864623649562050000807030062
:10013000001C2241000041221C002A1C7F1C2A08AE
:10014000083E080800807030000808080808000011
:1001500060600020100804023E5149453E00427F85
:10016000400072494949462141494D331814127FD4
:100170001027454545393C4A494931412111090774
:100180003649494936464949291E000014000000F5
:1001900040340000000814224114141414140041C7
:1001A00022140802015909063E415D594E7C121184
:1001B000127C7F494949363E414141227F414141BC
:1001C0003E7F494949417F090909013E4141517337
:1001D0007F0808087F00417F41002040413F017FA8
:1001E000081422417F404040407F021C027F7F0470
:1001F00008107F3E4141413E7F090909063E4151B9
:10020000215E7F09192946264949493203017F01A8
:10021000033F4040403F1F2040201F3F4038403FA9
:10022000631408146303047804036159494D4300BF
:100230007F4141410204081020004141417F0402F6
:10024000010204404040404000030708002054548D
:1002500078407F284444383844444428384444286B
:100260007F385454541800087E090218A4A49C78BE
:100270007F0804047800447D40002040403D007F1A
:100280001028440000417F40007C047804787C08FA
:100290000404783844444438FC18242418182424CE
:1002A00018FC7C08040408485454542404043F44B3
:1002B000243C4040207C1C2040201C3C4030403CE2
:1002C00044281028444C9090907C4464544C440042
:1002D00008364100000077000000413608000201A6
:1002E0000204023C2623263C1EA1A161123A404092
:1002F000207A38545455592155557941225454780F
:1003000042215554784020545579400C1E527212A7
:100310003955555559395454545939555454580030
:1003200000457C410002457D420001457C407D1234
:1003300011127DF0282528F07C5455450020545496
:100340007C547C0A097F4932494949323A44444441
:100350003A324A4848303A4141217A3A424020787C
:10036000009DA0A07D3D4242423D3D4040403D3C7D
:1003700024FF2424487E4943662B2FFC2F2BFF09A2
:1003800029F620C0887E0903205454794100004496
:100390007D413048484A32384040227A007A0A0A81
:1003A000727D0D19317D2629292F282629292926F4
:1003B00030484D4020380808080808080808382F39
:1003C00010C8ACBA2F102834FA00007B00000814C3
:1003D0002A142222142A14085500550055AA55AA99
:1003E00055AAFF55FF55FF000000FF00101010FF39
:1003F00000141414FF001010FF00FF1010F010F094
:10040000141414FC001414F700FF0000FF00FF1484
:1004100014F404FC141417101F10101F101F1414D0
:10042000141F00101010F0000000001F101010101A
:100430001F10101010F010000000FF10101010100E
:1004400010101010FF10000000FF140000FF00FF4C
:1004500000001F10170000FC04F4141417101714E8
:1004600014F404F40000FF00F7141414141414140A
:10047000F700F7141414171410101F101F1414147D
:10048000F4141010F010F000001F101F0000001FE7
:1004900014000000FC140000F010F01010FF10FF1A
:1004A000141414FF141010101F00000000F010FFAF
:1004B000FFFFFFFFF0F0F0F0F0FFFFFF0000000093
:1004C00000FFFF0F0F0F0F0F3844443844FC4A4A17
:1004D0004A347E02020606027E027E0263554941CC
:1004E000633844443C04407E201E2006027E020203
:1004F00099A5E7A5991C2A492A1C4C7201724C3017
:100500004A4D4D303048784830BC625A463D3E49ED
:100510004949007E0101017E2A2A2A2A2A44445F91
:10052000444440514A444040444A51400000FF0185
:1005300003E080FF000008086B6B08361236243693
:10054000060F090F060000181800000010100030F8
:1005500040FF0101001F01011E00191D1712003C80
:100560003C3C3C0000000000000103070F1F3F7FE0
:100570000080C0E0F0F8FCFE00000000240027002E
:100580002A00DB40A4A62EAF2000A1C8D300408DD6
:10059000AED580A800006000000000000000000050
:1005A0000000000000E0000000000000000000006B
:1005B00000000001E000000000000000000000005A
:1005C000000001F00000000000000000000000003A
:1005D0000003F00000000000000000000000000028
:1005E00007F000000000000000000000000000070D
:1005F000F8000000000000000000000000000FF8FC
:1006000000000003C0007E000001E0007F0FF80042
:10061000000003C000FE000001E000FFEFF8000052
:100620000003C000FE000001E000FFFFF800000032
:1006300003C000F00000000F007FFE7FC000000339
:10064000C000F00000000F003FFE7FF83FF1FBCF3D
:10065000FCFEF3BC3DEFE01FFE7FFF7FFBFFDFFEF4
:10066000FEFFBC3DEFE01FC6FFFF7FFBFFDFFEFE8E
:10067000FFBC3DEFE00FE3C7FE787BC3DE1EF0FF5B
:10068000BC3DEF0007FF87FC787BC3DE1EF0F83C23
:100690003DEF0001FFFFF0007BC3C01EF0F03C3DCA
:1006A000EF0001F37FE03FFBC3CFFEF0F03C3DEFF6
:1006B0000003E33F807FFBC3DFFEF0F03C3DEF0033
:1006C00007E73C00787BC3DE1EF0F03C3DEF0007FF
:1006D000FFBE00787BC3DE1EF0F03C3DEF0007FF5D
:1006E000FE00787BC3DE1EF0F03C3DEF000FFFFE06
:1006F000007FFBFFDFFEF0F03FFDEFE00FFFFF00AC
:100700007FFBFFDFFEF0F03FFDEFE00FF9FF003E63
:1007100079F9CF9EF0F01F3DE7E01FF1FF000000E8
:100720000000000000000000001F80FF007FFFFFAE
:10073000FFFFFFFFFFFFFFE01C007F007FFFFFFFC9
:10074000FEB46D888D18E000001F007FFFFFFFFEE4
:1007500095AD7DB577E000000F007FFFFFFFFEA5A0
:10076000AD9D8D19E0000006007FFFFFFFFEB5ADD7
:10077000EDB57EE0000000000001800000000000F8
:1007800000000000038000000000000000000007DF
:10079000C000000000000000000007C000000000D2
:1007A00000000000000FC00000000000000000007A
:1007B0001FE00000000000000000001FE00000003B
:1007C0000000000000003FE000000000000000000A
:1007D000003FF00000000000000000007FF000007B
:1007E00000000000001FF87FF00000000000000083
:1007F0003FFE7FF0000000000000003FFF7FF000A0
:100800000000000000001FFFFBE0000000000000EF
:10081000000FFFF9FFC00000000000000FFFF9FF0C
:10082000F800000000000007FFF1FFFF00000000DB
:10083000000003FC73FFFF80000000000001FE3F8A
:10084000FFFF80000000000000FF1E0FFF000000FF
:10085000000000007FFE1FFC000000000000003FC1
:10086000FFFFF8000000000000000FDFFFE00000C5
:1008700000000000001F19FFC00000000000000081
:100880003F3CFF00000000000000007E7CF80000FC
:100890000000000000007FFE7C000000000000005F
:1008A00000FFFFFC0000000000000000FFFFFE0052
:1008B00000000000000000FFFFFE0000000000003C
:1008C0000001FFEFFE0000000000000001FFCFFE6E
:1008D0000000000000000003FF07FE000000000011
:1008E000000003FC07FE0000000000000003F0030E
:1008F000FE00000000000000018000FE000000007B
:100900000000000000007E00000000000000000069
:10091000003E000000000000000000000C0000008D
:10092000000000078000FC000003C00000000780FA
:1009300001FC000003C0000000078001FC00000370
:10094000C0000000078001E00000001E000000075A
:100950008001E00000001E007FE3F79FF9FDE778CB
:100960007BDFC0FFF7FFBFFDFDFF787BDFC0FFF738
:10097000FFBFFDFDFF787BDFC0F0F787BC3DE1FFE7
:10098000787BDE00F0F787BC3DE1F0787BDE00008D
:10099000F787803DE1E0787BDE007FF7879FFDE110
:1009A000E0787BDE00FFF787BFFDE1E0787BDE00CB
:1009B000F0F787BC3DE1E0787BDE00F0F787BC3DD7
:1009C000E1E0787BDE00F0F787BC3DE1E0787BDE9C
:1009D00000FFF7FFBFFDE1E07FFBDFC0FFF7FFBFD8
:1009E000FDE1E07FFBDFC07CF3F39F3DE1E03E7B78
:1009F000CFC00000000000000000000000FFFFFF6B
:100A0000FFFFFFFFFFFFFFC0FFFFFFFFFD68DB11E0
:100A10001A31C0FFFFFFFFFD2B5AFB6AEFC0FFFF3B
:100A2000FFFFFD4B5B3B1A33C0FFFFFFFFFD6B5B1E
:100A3000DB6AFDC05353443133303620616C6C6F38
:100A4000636174696F6E206661696C6564000000A3
:100A5000000800020100000304070000000000007D
:100A60000000000000002300260029002200FF21D2
:100A70000000000000250028002B000204040404EC
:100A80000404040402020202020203030303030338
:100A90000102040810204080010204081020010215
:100AA000040810209A1A502111241FBECFEFD8E05D
:100AB000DEBFCDBF12E0A0E0B1E0E2E9FAE402C09F
:100AC00005900D92AC31B107D9F723E0ACE1B2E06B
:100AD00001C01D92A13FB207E1F715E0C3E5D5E0E3
:100AE00004C02197FE010E940524C235D107C9F731
:100AF0000E943C1B0C943C250C9400000895CF925E
:100B0000DF92EF92FF92CF93DF93B091E103A0E0E9
:100B10008111AB2F8091E20390E0880F991FAC0107
:100B20004E59554FC090E703D090E803E090E90399
:100B3000F090EA0330E020E0FA01C591D491E88119
:100B4000B90190E080E0EB23EA130AC02F5F3F4F2A
:100B50006C157D058E059F0578F36FEF7FEFCB0158
:100B6000DF91CF91FF90EF90DF90CF90089508959F
:100B70000895AF92BF92CF92DF92EF92FF920F93C0
:100B80001F93CF93DF936C017B018B01040F151F23
:100B9000EB015E01AE18BF08C017D10759F069918B
:100BA000D601ED91FC910190F081E02DC6010995EF
:100BB000892B79F7C501DF91CF911F910F91FF909C
:100BC000EF90DF90CF90BF90AF900895FC01538DD0
:100BD000448D252F30E0842F90E0821B930B541717
:100BE00010F0CF96089501970895FC01918D828DA4
:100BF000981761F0A28DAE0FBF2FB11D5D968C913D
:100C0000928D9F5F9F73928F90E008958FEF9FEF7B
:100C10000895FC01918D828D981731F0828DE80F37
:100C2000F11D858D90E008958FEF9FEF0895FC01F1
:100C3000918D228D892F90E0805C9F4F821B9109BE
:100C40008F739927089581EF92E00E94170621E0A3
:100C5000892B09F420E0822F089580E090E0892B11
:100C600029F00E94230681110C9400000895FC01D4
:100C7000A48DA80FB92FB11DA35ABF4F2C91848DFD
:100C800090E001968F739927848FA689B7892C935A
:100C9000A089B1898C91837080648C93938D848DAD
:100CA000981306C00288F389E02D80818F7D8083B0
:100CB0000895EF92FF920F931F93CF93DF93EC0170
:100CC00081E0888F9B8D8C8D98131AC0E889F989F3
:100CD000808185FF15C09FB7F894EE89FF896083F6
:100CE000E889F98980818370806480839FBF81E077
:100CF00090E0DF91CF911F910F91FF90EF900895B9
:100D0000F62E0B8D10E00F5F1F4F0F731127E02E93
:100D10008C8D8E110CC00FB607FCFACFE889F989CB
:100D2000808185FFF5CFCE010E943706F1CFEB8D94
:100D3000EC0FFD2FF11DE35AFF4FF0829FB7F8949F
:100D40000B8FEA89FB8980818062CFCFCF93DF93BD
:100D5000EC01888D8823B9F0AA89BB89E889F989D3
:100D60008C9185FD03C0808186FD0DC00FB607FC08
:100D7000F7CF8C9185FFF2CF808185FFEDCFCE013B
:100D80000E943706E9CFDF91CF91089590E0FC01F2
:100D9000E25BF54F2491FC01E057F54F3491FC01E3
:100DA000E458F54FE491EE23C9F0222339F02330C3
:100DB00001F1A8F4213019F1223029F1F0E0EE0F11
:100DC000FF1FEF58F54FA591B4918FB7F894EC91B0
:100DD000611126C030953E233C938FBF0895273084
:100DE000A9F02830C9F0243049F7809180008F7D28
:100DF00003C0809180008F7780938000DFCF84B51F
:100E00008F7784BDDBCF84B58F7DFBCF8091B00021
:100E10008F778093B000D2CF8091B0008F7DF9CFD3
:100E20003E2BDACF9091000189130BC0EBE7FAE07B
:100E3000E4919FEF90930001E13049F028F0E23017
:100E400061F060E00C94C60610926E00FACF9091AB
:100E50006F009D7F90936F00F4CF909170009D7F05
:100E60009093700091E09093B0009091B100987FC2
:100E700094609093B1001092B300E3CFCF93DF93CF
:100E800090E0FC01E057F54F24918458954FFC0108
:100E900084918823D1F090E0880F991FFC01E858D5
:100EA000FA4FA591B491FC01EF58F54FC591D4913B
:100EB000623071F49FB7F8943C91822F8095832320
:100EC0008C93E8812E2B28839FBFDF91CF910895CB
:100ED0008FB7F894EC912E2B2C938FBFF6CFCF9237
:100EE000DF92EF92FF920F931F93CF938C0180912B
:100EF0000001823051F08F3FC1F1CF911F910F91CE
:100F0000FF90EF90DF90CF900895EBE7FAE0C49167
:100F1000C7FDF3CF61E082E00E943E07C1113BC0F4
:100F2000980150E040E068E478EE81E090E00E94B3
:100F30005F21BA01A901415051096109710985B5C3
:100F4000887F836085BD47BD8FEF9FEFDC01809375
:100F5000ED029093EE02A093EF02B093F002809125
:100F60006E00826080936E00C8CF82E080930001A3
:100F7000EBE7FAE0C491CF3F09F4BFCFC13009F4E9
:100F80004EC0A0F1C23009F468C0C7FDB6CF61E021
:100F900082E00E943E07980150E040E0C23009F034
:100FA0007EC060E970ED83E090E00E945F21BA01AD
:100FB000A90141505109610971098091B100887FEF
:100FC00083608093B1004093B3008FEF9FEFDC010B
:100FD0008093E5029093E602A093E702B093E802C3
:100FE0008091700082608093700087CF14BC15BC24
:100FF00084B5826084BD85B5816085BDEEE7FAE089
:10100000E491F0E0EE0FFF1FEF58F54F85919491BA
:10101000E2E9FAE0E491E093E402C0E07BCF1092D1
:10102000800010928100809181008860809381000F
:1010300080918100816080938100EEE7FAE0E49185
:10104000F0E0EE0FFF1FEF58F54F85919491E2E924
:10105000FAE0E491E093E3025DCF1092B0001092C9
:10106000B1008091B00082608093B0008091B100A7
:1010700081608093B100EEE7FAE0E491F0E0EE0FDA
:10108000FF1FEF58F54F859194919093E202809362
:10109000E102E2E9FAE0E491E093E0023BCF60E0B4
:1010A00072E18AE790E00E945F2169017A0181E0A4
:1010B000C81AD108E108F108A601C130D9F480911D
:1010C0008100887F816080938100D0928900C092E6
:1010D00088008FEF9FEFDC018093E9029093EA0292
:1010E000A093EB02B093EC0280916F00826080933A
:1010F0006F0003CFC23009F466CFC111FECE23CFFB
:101100008E50806480937C0080917A00806480930C
:101110007A0080917A0086FDFCCF809178009091D2
:10112000790008953FB7F8948091CD029091CE0256
:10113000A091CF02B091D00226B5A89B05C02F3F49
:1011400019F00196A11DB11D3FBFBA2FA92F982FED
:101150008827BC01CD01620F711D811D911D42E0E8
:10116000660F771F881F991F4A95D1F708958F92B0
:101170009F92AF92BF92CF92DF92EF92FF924B017C
:101180005C010E9492086B017C010E9492086C191C
:101190007D098E099F09683E734081059105A8F37A
:1011A00021E0821A9108A108B10888EEC80E83E0F8
:1011B000D81EE11CF11C81149104A104B10429F78B
:1011C000FF90EF90DF90CF90BF90AF909F908F9067
:1011D0000895CF92DF92EF92FF920F931F93CF93D8
:1011E000DF93CDB7DEB7C054D1400FB6F894DEBF61
:1011F0000FBECDBF2FB7F8948091D8029091D9023D
:10120000A091DA02B091DB022FBF4091E30350912D
:10121000E4036091E5037091E6038C019D01041BDA
:10122000150B260B370BB901A801403D574061054E
:10123000710590F48091EB03C05CDE4F0FB6F8941B
:10124000DEBF0FBECDBFDF91CF911F910F91FF90F9
:10125000EF90DF90CF9008958093E3039093E403A1
:10126000A093E503B093E6031092DE031092DD0332
:101270001092DC031092DB031092DA0362E080919B
:10128000DF030E943E0761E070E080E090E00E9492
:10129000B70861E08091DF030E943E0760E0809123
:1012A000DF030E94C6068091E0038551823020F55D
:1012B0008BE291E10197F1F762E08091DF030E94F8
:1012C0003E078091EC0390E08230910538F0880F62
:1012D000991F880F991F05970197F1F7F89480E0FF
:1012E0000E947F056F3F7F4F8F4F9F4F61F4109299
:1012F000EB03789480E0A0CF64E170E080E090E0C0
:101300000E94B708D9CF81E00E947F056F3F7F4FD1
:101310008F4F9F4F61F38E010F5F1F4F6E018FEB59
:10132000C81A8EEFD80A780180E00E947F05F70185
:10133000608371838283938381E00E947F05F7013C
:101340006483758386839783F8E0EF0EF11CEC14B9
:10135000FD0451F7789430E020E0F801C080D1809E
:10136000E280F3804481558166817781FFEFCF165B
:10137000DF06EF06FF0631F04F3F8FEF5807680793
:10138000780719F41092EB03B5CFF90183E0F595D6
:10139000E7958A95E1F7E652FC4F8081880FC416E5
:1013A000D506E606F70610F180832F5F3F4F085FF2
:1013B0001F4F2832310589F64091DE032091DA0370
:1013C0008091DB03280F3327331F8091DC03280F24
:1013D000311D8091DD03820F932F911D99274817AE
:1013E000190681F681E08093EB0326CF8160DCCF84
:1013F000EF92FF920F931F93CF93DF93EC01EC805A
:10140000FD806E157F050CF070C057FF04C0240FDF
:10141000351F50E040E08E819F81FA01E20FF31FFB
:101420008E179F071CF49C01241B350B1216130604
:101430000CF05BC0922F842F8695869586958E9DA5
:10144000D0018F9DB00D11246A0F7B1FAF8DB8A105
:10145000A60FB71F477049F188E0841B482F682FFB
:1014600070E0FB01E059FA4FE491281708F063C0DF
:10147000621B71092FEF30E002C0359527956A9500
:10148000E2F7E2230130110539F0B0F10230110525
:1014900061F58C91E82702C08C91E82BEC939417AE
:1014A00020F12C813D81A20FB31FE92FE41BE8300E
:1014B00078F00230110521F58E2F9C9190959C9328
:1014C0002C813D81A20FB31F88508830B0F7E770A0
:1014D000EE2359F0F0E0E859FA4FE491013011059C
:1014E000F9F010F10230110519F1DF91CF911F9140
:1014F0000F91FF90EF900895E0958C91E823CECF67
:1015000081E00115110509F480E081959E2F8C93EF
:101510002C813D81A20FB31F98509830C0F7D7CFD0
:101520008C91E82BEC93E1CFE0958C91E823FACFF6
:101530008C91E827F7CF0130110509F4ADCFE0F227
:101540000230110509F4A5CFAE0DBF1DAECF0F932C
:101550001F93CF93DF9377FF04C0260F371F70E0F0
:1015600060E0DC011496CD91DC91FB01E20FF31FEA
:10157000CE17DF071CF49E01261B370B121613062D
:101580004CF5FA0157FD3796A3E0F595E795AA9536
:10159000E1F7EC9FD001ED9FB00DFC9FB00D112441
:1015A0006A0F7B1FDC015F96ED91FC91E60FF71F40
:1015B0004770552781E090E001C0880F4A95EAF70F
:1015C000482F0130110559F0A8F02E0F3F1F0230AF
:1015D0001105E1F0DF91CF911F910F9108952E0F2A
:1015E0003F1FE217F307B1F38191DF011197842BBD
:1015F0008C93F7CF80952E0F3F1FE217F30751F31F
:101600009191DF01119798239C93F7CFE217F3078D
:1016100009F38191DF01119784278C93F7CF0F9302
:101620001F93FA01DC0156964C9156974230E9F02F
:101630004330A1F1413061F514964D915C91DA018E
:10164000AE1BBF0BFD01E21BF30B77FD0BC0DC01F2
:1016500016964D915C916417750724F4AB01BF0198
:101660000E94A70A1F910F91089514964D915C91C5
:10167000DA01A61BB70BBD0161507109DC0116969A
:101680004D915C91DA01AE1BBF0BFD01E21BF30B28
:1016900077FDE8CFAF010E94F809E4CF16964D918F
:1016A0005C91DA01A61BB70BBD0161507109CDCF6A
:1016B0000F931F93FA01DC0156964C9156974230D6
:1016C000A9F0433091F1413019F514964D915C9198
:1016D000DA01AE1BBF0BFD013197F7FD04C0AB0172
:1016E000BF010E94F8091F910F91089514964D9122
:1016F0005C91DA01A61BB70BBD01DC0116964D917A
:101700005C91DA01AE1BBF0BFD013197621B730BBD
:10171000F7FDE9CFDC0116964D915C91E417F507D2
:1017200014F7AF010E94A70ADECF16964D915C9187
:10173000DA01A61BB70BBD01621B730BCECFFC01F8
:1017400077FD64C080859185681779070CF05EC0CD
:1017500057FD5CC082859385481759070CF056C029
:1017600086898230B1F0833029F1813041F484815F
:101770009581841B950BAB01BC016150710921302F
:10178000310509F108F443C02230310509F463C082
:10179000089584819581DC01A61BB70BBD016150C2
:1017A000710986819781DC01A41BB50BAD01415005
:1017B0005109E5CF86819781861B970BBA01AC0151
:1017C00041505109DCCFCA0157FD0796A3E095951A
:1017D0008795AA95E1F7A481B5818A9F90018B9F97
:1017E000300D9A9F300D1124620F731F078CF0A1EA
:1017F000E02DE60FF71F4770552721E030E001C0CC
:10180000220F4A95EAF78081822B80830895CA01CE
:1018100057FD079633E0959587953A95E1F7A481B2
:10182000B5818A9F90018B9F300D9A9F300D1124B6
:10183000620F731F078CF0A1E02DE60FF71F4770B2
:10184000552781E090E001C0880F4A95EAF780951E
:1018500090818923DACFCA0157FD079623E0959539
:1018600087952A95E1F7A481B5818A9F90018B9F86
:10187000300D9A9F300D1124620F731F078CF0A159
:10188000E02DE60FF71F4770552721E030E001C03B
:10189000220F4A95EAF780818227B7CF08958EBD3F
:1018A00000000DB407FEFDCF8EB508958CBD9DBD23
:1018B00008950895FC016370668B8481958126816B
:1018C0003781613039F0633029F091878087338721
:1018D00022870895318720879387828708952F92E2
:1018E0003F924F925F926F927F928F929F92AF92B0
:1018F000BF92CF92DF92EF92FF920F931F93CF93FD
:10190000DF93CDB7DEB76A970FB6F894DEBF0FBE90
:10191000CDBF9A8F898F7A8369834A01D22E188727
:101920000F833701BC2CDC0159962D913C915A97BD
:101930002115310509F015C118968D919C911997C3
:10194000681779070CF0D7C11A968D919C914817AA
:1019500059070CF0D0C14C2C512CB6E0CB9E600D39
:10196000711D11247C876B87161617060CF0C3C1F6
:10197000EA2DF0E0FA87E98793E0EE0FFF1F9A95D2
:10198000E1F7F88BEF87CF01840F951F1816190622
:101990000CF0B1C1A98DBA8D58968C91811104C0FB
:1019A000BFEABD1508F4D394A98DBA8DED91FC91D1
:1019B00011970284F385E02DCD010995B5E0DB9EFA
:1019C000C0011124E981FA81FC83EB83312C212CA5
:1019D0009C0128593F4F388F2F8B4A2D50E05E8B4A
:1019E0004D8BEF89F88DE20DF31D44919E828D821F
:1019F000D12CC12C69817A81620D731D7A8B698B20
:101A0000842F90E09C8B8B8BE98DFA8DA081B18126
:101A100040FF82C0F1E0BF126FC0AF126DC01C96D4
:101A2000ED91FC912F813885A4014C0D5D1D6989D4
:101A30007A89898D9A8D0995EB89FC89F595E795C9
:101A40004E2F5FEFC51AD50A6D817E818D899E89E3
:101A5000680F791F7E836D8398E0C916D10481F6E3
:101A6000AFEF2A1A3A0AEB81FC81E40DF51DFC83E5
:101A7000EB83F5E02F16310409F0B3CF2F813885C1
:101A800026153705B9F0A98DBA8DED91FC91B1E01D
:101A9000BB1257C0AB1255C069817A816B5F7F4F13
:101AA0000088F189E02D830128E030E0A401898DD0
:101AB0009A8D0995A98DBA8DED91FC9111970688A3
:101AC000F789E02DCD016A960FB6F894DEBF0FBE00
:101AD000CDBFDF91CF911F910F91FF90EF90DF90DD
:101AE000CF90BF90AF909F908F907F906F905F90BE
:101AF0004F903F902F9009941E96ED91FC91EF80AE
:101B0000F88409851A8592014D815E816B817C8103
:101B1000898D9A8D099590CF2F81388526153705A7
:101B200009F48ACF31E0B31207C0A31205C01C9696
:101B3000ED91FC91930178CF1E96ED91FC9173018C
:101B4000E0CF6B857C85641975090684F785E02DE7
:101B500073010F8518899201A401898D9A8D0995C9
:101B6000A9CFF90134969491329745915491D91A9D
:101B7000B7E0DB9E400D511D1124F90125913491F0
:101B80003C8B2B8BFA0125903490FA01329674909D
:101B900031963491398B329664903196449041E07D
:101BA0004C1518F04A1508F07FC0662D062C000C65
:101BB000770B7C836B83842D042C000C990B9E8304
:101BC0008D83A98DBA8DED91FC9111970284F385D7
:101BD000E02DCD010995512CD12CC12CEA2DF0E03E
:101BE000FA87E9872B2D30E03C872B87A401440D31
:101BF000511D47FC5A95588F4F8B69817A81660D2C
:101C0000711D67FC7A957E876D877989C71608F004
:101C100051CF2C2D30E04D815E81420F531FA9859D
:101C2000BA854A9FC0014B9F900D5A9F900D112479
:101C3000FC01E80DF91DF88BEF87852D612C4F898C
:101C4000588D420F531F5E8B4D8B671408F050C0A8
:101C500044244394480E877041F4C1010196EB89F6
:101C6000FC89E20DF31DD4901C01D7FE19C0A98D8B
:101C7000BA8DED91FC91662D70E0B1E0BB1219C0F8
:101C8000AB1217C02D853E85620F731F0484F58546
:101C9000E02D2F8138854D895E89898D9A8D099532
:101CA000DD0C6394842DD1CF1E821D821C821B8289
:101CB00088CF4B815C81640F751FAB85BC856A9FA3
:101CC000C0016B9F900D7A9F900D112469817A81DC
:101CD000680F791F0684F785E02DEF80F884098569
:101CE0001A859D014F855889898D9A8D0995D8CF80
:101CF000570CC3948ACF6A960FB6F894DEBF0FBE16
:101D0000CDBFDF91CF911F910F91FF90EF90DF90AA
:101D1000CF90BF90AF909F908F907F906F905F908B
:101D20004F903F902F9008958F929F92AF92CF92B5
:101D3000EF92FF920F931F93CF93DF93EC01262F27
:101D4000898D9A8D009709F051C06A30D1F41D86B3
:101D50001C868D8948E0849F900111248E859F8583
:101D6000820F931F9F878E8781E090E0DF91CF9154
:101D70001F910F91FF90EF90CF90AF909F908F9019
:101D800008956D3089F3CC88AD888F898823C1F0A0
:101D90008C859D8536E0C39E800D911D112448855C
:101DA00059854817590764F44E855F851D861C8642
:101DB00038E0A39EC0011124840F951F9F878E8752
:101DC000EA88FB88088919894E855F856C857D8541
:101DD000CE010E946F0C2C898C859D8546E0249F46
:101DE000800D911D11249D878C87BECF6A3069F4C8
:101DF0001D861C86FC013896E4912D898E859F8571
:101E0000E29F800D911D1124ADCF6D3009F4ACCF50
:101E1000FC0134963491631708F4A6CF3296E4910E
:101E2000E61708F4A1CFFC01329685909490462FD6
:101E3000431B342F47E0349F800C911C1124F40184
:101E4000329634913196E4913323A9F1EE2399F13E
:101E5000CC88F4013596E491AD884F89442301F193
:101E60000E2E000CFF0BE30FF11DCE9EA001CF9EA6
:101E7000500D11246C857D85460F571F6885798527
:101E8000641775076CF44E855F851D861C86FC0102
:101E90003896E491AE9E400D511D11245F874E8708
:101EA000EA88FB88088919894E855F856C857D8560
:101EB000CE010E946F0CF4013496E4912C898C853C
:101EC0009D85E29F800D911D11248DCF6F927F9291
:101ED0008F929F92AF92BF92CF92DF92EF92FF923A
:101EE0000F931F93CF93DF93EC016B015A013901DC
:101EF0004801E881F9810284F385E02D0995E881A4
:101F0000F9810288F389E02D87019301A501B601CB
:101F1000CE010995A501480D591D41505109E8818F
:101F2000F9810288F389E02D9301B601CE0109956C
:101F3000E881F9810088F189E02D9401A501B601BD
:101F4000CE010995C60CD71CB60161507109E88114
:101F5000F9810088F189E02D9401A501CE01099550
:101F6000E881F9810688F789E02DCE01DF91CF91D4
:101F70001F910F91FF90EF90DF90CF90BF90AF90A7
:101F80009F908F907F906F9009946F927F928F9225
:101F90009F92AF92BF92CF92DF92EF92FF920F93F8
:101FA0001F93CF93DF935C01EB016A014901380174
:101FB0008701DC01ED91FC916217730719F5641636
:101FC00075062CF0962D872D3A01C92ED82E960134
:101FD000261937092F5F3F4F048CF58DE02DA301A3
:101FE000BE01C5010995DF91CF911F910F91FF901F
:101FF000EF90DF90CF90BF90AF909F908F907F90A9
:102000006F9008954615570591F42617370724F069
:10201000892D4B01C22FD82F9E01281939092F5F16
:102020003F4F068CF78DE02DA601B401DACF028474
:10203000F385E02D0995D501ED91FC910488F58992
:10204000E02D83019401A601BE01C5010995D501CA
:10205000ED91FC910688F789E02DC501DF91CF91C4
:102060001F910F91FF90EF90DF90CF90BF90AF90B6
:102070009F908F907F906F900994EF92FF920F93B3
:102080001F93DC011A960D911C911B9718962D91A8
:102090003C911997ED91FC9100A0F1A1E02D7B01FD
:1020A00050E040E070E060E009951F910F91FF90D3
:1020B000EF9008954F925F926F927F928F929F92CE
:1020C000AF92BF92CF92DF92EF92FF920F931F9346
:1020D000CF93DF936C012B015A0139014801DC01D8
:1020E000ED91FC910284F385E02D0995E201640CE9
:1020F000751CD601ED91FC91C615D7055CF40088DE
:10210000F189E02D87019401A501BE01C601099561
:102110002196EFCF0688F789E02DC601DF91CF9198
:102120001F910F91FF90EF90DF90CF90BF90AF90F5
:102130009F908F907F906F905F904F9009948F92B7
:102140009F92AF92BF92CF92DF92EF92FF920F9346
:102150001F93CF93DF93EC015B014A016901E88192
:10216000F9810284F385E02D099595012C0D3D1D23
:1021700021503109E881F9810488F589E02D780141
:102180008401A401B501CE010995E881F981068891
:10219000F789E02DCE01DF91CF911F910F91FF9034
:1021A000EF90DF90CF90BF90AF909F908F90099469
:1021B0008F929F92AF92BF92CF92DF92EF92FF9257
:1021C0000F931F93CF93DF93EC015B014A016901E9
:1021D0007801E881F9810284F385E02D0995C80C26
:1021E000D91C860101501109E881F9810488F5891B
:1021F000E02D9501A401B501CE010995E881F98191
:102200000688F789E02DCE01DF91CF911F910F91C4
:10221000FF90EF90DF90CF90BF90AF909F908F9006
:102220000994EF92FF920F931F93DC01ED91FC91C3
:1022300000A0F1A1E02D09951F910F91FF90EF9063
:1022400008950F931F93DC01ED91FC91068CF78D9F
:10225000E02D09951F910F9108950F931F93DC01B5
:10226000ED91FC91048CF58DE02D09951F910F9156
:102270000895DC01ED91FC910084F185E02D099435
:102280003F924F925F926F927F928F929F92AF9206
:10229000BF92CF92DF92EF92FF920F931F93CF9353
:1022A000DF935C017B014A016901390187E0680E17
:1022B000711C93E0759467949A95E1F72B01400E99
:1022C000511E10E000E0312CD0E0C0E0CE0187705C
:1022D0009927330C892B59F4FE0183E0F595E79596
:1022E0008A95E1F7E00FF11FE80DF91D349037FEF4
:1022F0000AC021E030E0A701B5016C0F7D1F8AE91B
:1023000093E00E9439112196CC16DD06F9F68FEF85
:10231000E81AF80A060D171DE414F504A9F6DF9172
:10232000CF911F910F91FF90EF90DF90CF90BF90D2
:10233000AF909F908F907F906F905F904F903F9065
:1023400008952F923F924F925F926F927F928F9259
:102350009F92AF92BF92CF92DF92EF92FF920F9334
:102360001F93CF93DF9300D000D000D0CDB7DEB75E
:102370003C016A013E832D83FC82EB825801A41A42
:10238000B50AB7FE03C0B194A194B1088D809E80B8
:10239000861A970A97FE03C09194819491088A1433
:1023A0009B045CF0902F812F0D811E819D838E8375
:1023B0009C2D8D2D6B01692F782F0C151D055CF060
:1023C0009D818E817E836D83692F782F902F812F41
:1023D0008601C92ED82E1601201A310A2B012D8113
:1023E0003E81421A530A57FE03C05194419451084A
:1023F000710137FE03C03FEFE31AF30AF594E79447
:102400008D819E81861797075CF5A1E0B0E0BA83C5
:10241000A983C016D1064CF1D301ED91FC9104843F
:10242000F585E02D2B813C81A8016D817E818A1488
:102430009B041CF04D815E81B801C3010995E4182D
:10244000F508F7FE0AC02D813E8189819A81280F07
:10245000391F3E832D83E20CF31C0F5F1F4FD9CF32
:102460002FEF3FEF3A832983D4CF26960FB6F89407
:10247000DEBF0FBECDBFDF91CF911F910F91FF90B7
:10248000EF90DF90CF90BF90AF909F908F907F9014
:102490006F905F904F903F902F90089508952091F6
:1024A0008202260F3327331F21323105ECF42091AD
:1024B000A602FC0190E080E0243069F082E00895FB
:1024C000A09182022191AC014E595D4FA40FB52F0E
:1024D000B11D2C930196861798F380918202680FA4
:1024E0006093820280E0089581E008951092A60230
:1024F00081E08093A8021092A70261E082E10E942D
:10250000C60661E083E10E94C606E9EBF0E0808147
:102510008E7F808380818D7F808388E48093B80064
:1025200085E48093BC000895CF93DF9391E090936E
:1025300061028823B9F0C091B800D091BA008091AF
:10254000BC008A7B8093BC0060E082E10E94C606EA
:1025500060E083E10E94C6060E947612D093BA0022
:10256000C093B800DF91CF910895E091D702809198
:10257000D602E81730F4F0E0E45CFD4F808190E093
:1025800008958FEF9FEF08959091D7028091D60222
:102590002FEF3FEF981748F4E92FF0E0E45CFD4F90
:1025A000208130E09F5F9093D702C9010895809108
:1025B000D6029091D702891B990B0895CF92DF9292
:1025C000EF92FF920F931F93CF93DF937C01CB0188
:1025D0008A012091DF02222389F0EB016B01C40EF6
:1025E000D51ECC15DD0569F06991D701ED91FC91FF
:1025F0000190F081E02DC7010995F3CF642F0E946F
:102600004F12C801DF91CF911F910F91FF90EF9072
:10261000DF90CF900895CF93DF931F92CDB7DEB7B1
:1026200069832091DF022223F9F02091DC0220321D
:1026300058F021E030E0FC013383228390E080E019
:102640000F90DF91CF9108958091DD02E82FF0E0A7
:10265000E45EFD4F998190838F5F8093DD028093CC
:10266000DC0281E090E0ECCF61E0CE0101960E94B7
:102670004F12F7CFCF92DF92EF92FF920F931F93FB
:10268000CF93DF93D091DC0281E0D13208F09CC07F
:10269000C091DE020E9492086B017C018091A6022B
:1026A00081116CC082E08093A60281E08093A80231
:1026B0008FEF8093A5021092CA02D093C902ACE1B9
:1026C000B2E0E9EAF2E080E0D8138DC01092CB02CC
:1026D0008091CB02CC0FC82BC093CB028091A70274
:1026E000813009F084C01092A7020E9492086B0109
:1026F0007C018091CB028093BB0080915D02909120
:102700005E02A0915F02B0916002892B8A2B8B2B15
:10271000A1F00E94920800915D0210915E0220914A
:102720005F02309160026C197D098E099F090617BE
:1027300017072807390708F442C08091BC0083FDC1
:10274000D8CF85EC8093BC000E9492086B017C017D
:102750008091A602823009F44CC08091A5028F3F7F
:1027600009F469C08091A502803209F466C08091A5
:10277000A502803309F463C084E026C080915D0225
:1027800090915E02A0915F02B0916002892B8A2B2A
:102790008B2B09F483CF0E94920800915D02109167
:1027A0005E0220915F02309160026C197D098E09F2
:1027B0009F09061717072807390708F06FCF809180
:1027C0005C020E94941285E01092DD021092DC02FD
:1027D0001092DF02DF91CF911F910F91FF90EF9048
:1027E000DF90CF9008959D9191938F5F6DCF85EE8F
:1027F000A9CF80915D0290915E02A0915F02B0919D
:102800006002892B8A2B8B2B09F4A2CF0E9492089D
:1028100000915D0210915E0220915F023091600292
:102820006C197D098E099F090617170728073907B4
:1028300008F08ECFC4CF80E0C7CF82E0C5CF83E061
:10284000C3CFEF92FF920F931F93CF93DF937C013F
:10285000C62F8091B7039091B803009709F459C02F
:102860002091BB0331E03093DF022093DE0210920F
:10287000DD021092DC02DC01ED91FC910190F0810F
:10288000E02D60E009958701EE24E394F12CD1E07E
:10289000C1508091B7039091B803CF3F91F1B0E25E
:1028A000EB16F104D8F00E943A138091B70390918F
:1028B000B8032091BB03D093DF022093DE02109275
:1028C000DD021092DC02DC01ED91FC910190F081BF
:1028D000E02D60E00995EE24E394F12C8091B7039C
:1028E0009091B803F8016491DC01ED91FC910190A5
:1028F000F081E02D0995BFEFEB1AFB0A0F5F1F4F28
:10290000C7CFDF91CF911F910F91FF90EF900C9463
:102910003A13E091C703F091C80390818091CD03F1
:102920008095892380838701C15008F438C0F8015D
:1029300084912091B5033091B603232B29F00E9496
:102940004F0C0F5F1F4FF0CF28E030E040E8E091E0
:10295000C303F091C4039091CB03582F5423D9F0B3
:102960005081952B9083E091C503F091C60390812F
:102970005091CC03952B9083E091C503F091C60351
:1029800050819091CC03909595239083469521504A
:102990003109E9F6D6CF508190959523E3CFDF91A9
:1029A000CF911F910F91FF90EF9008951F93CF93B8
:1029B000DF93EC018D8D9E8D009721F1162F29A1BB
:1029C00031E03093DF022093DE021092DD0210929C
:1029D000DC02DC01ED91FC910190F081E02D60E0E2
:1029E00009958D8D9E8DDC01ED91FC910190F0811A
:1029F000E02D612F09958D8D9E8DDF91CF911F91D7
:102A00000C943A13ADA5BEA59C918BA98095892302
:102A10008C938B8D9C8D892B31F0862FDF91CF91FC
:102A20001F910C944F0C28E030E080E8A9A5BAA5CE
:102A300099A9462F4823C1F04C91942B9C93ABA5A8
:102A4000BCA59C914AA9942B9C93ABA5BCA54C9189
:102A50009AA9909594239C9386952150310931F73A
:102A6000DF91CF911F9108954C9190959423E6CFDB
:102A7000DF92EF92FF920F931F93CF93DF9380919A
:102A8000B7039091B803892B09F498C02091CF0324
:102A90003091D0034091D1035091D20360E074E2B1
:102AA00084EF90E00E9491212051310941095109A0
:102AB00056954795379527952093B80065E08CE6A5
:102AC0009AE00E94211460919E0361508AE993E08C
:102AD0000E94D6142091A0033091A103C90107964A
:102AE00097FD079633E0959587953A95E1F7209104
:102AF0009E0330919F03829F8001839F100D929FC0
:102B0000100D1124C091B903D091BA038091B7037D
:102B10009091B8030C0F1D1F009709F48FC02091EE
:102B2000BB0331E03093DF022093DE021092DD021E
:102B30001092DC02DC01ED91FC910190F081E02D1E
:102B400060E40995EE24E394F12CDD24D394809184
:102B5000B7039091B8030C171D0709F446C0B0E203
:102B6000EB16F104D8F00E943A138091B7039091CC
:102B7000B8032091BB03D092DF022093DE021092B3
:102B8000DD021092DC02DC01ED91FC910190F081FC
:102B9000E02D60E40995EE24E394F12C8091B703D5
:102BA0009091B8036991DC01ED91FC910190F08165
:102BB000E02D0995BFEFEB1AFB0AC9CF8091B50351
:102BC0009091B603892B31F08091D8039091D9036D
:102BD0000E94560CE091C903F091CA039081809144
:102BE000CE0380958923808369CF0E943A13809118
:102BF000B7039091B803892B09F461C02091D303E6
:102C00003091D4034091D5035091D60360E074E233
:102C100084EF90E00E94912120513109410951092E
:102C200056954795379527952093B800DF91CF911A
:102C30001F910F91FF90EF90DF900895E091C703EF
:102C4000F091C80380819091CD03892B80830C176C
:102C50001D0769F289912091B5033091B603232BAA
:102C600019F00E944F0CF3CF28E030E040E8E091EB
:102C7000C303F091C4039091CB03582F5423D9F090
:102C80005081952B9083E091C503F091C60390810C
:102C90005091CC03952B9083E091C503F091C6032E
:102CA00050819091CC039095952390834695215027
:102CB0003109E9F6CCCF508190959523E3CFE0918F
:102CC000C903F091CA0380819091CE03892B808340
:102CD000ADCF1F93CF93DF93EC01162F8D8D9E8D7B
:102CE000892BB1F12DA93EA94FA958AD60E074E23E
:102CF00084EF90E00E94912120513109410951094E
:102D000056954795379527952093B80066EA111197
:102D100067EACE010E94D6148D8D9E8D892B41F1DC
:102D200029AD3AAD4BAD5CAD60E074E284EF90E06C
:102D30000E94912120513109410951095695479529
:102D4000379527952093B800DF91CF911F91089573
:102D50008B8D9C8D892B21F08EAD9FAD0E94560CE2
:102D6000EFA5F8A990818CA9809589238083CECF87
:102D7000EFA5F8A980819CA9892B8083E5CF90E0FD
:102D800080E008952091A0033091A103C901079626
:102D900097FD079623E0959587952A95E1F7209171
:102DA0009E0330919F03829FA001839F500D929FAD
:102DB000500D112470E060E08091B9039091BA0346
:102DC0000C9435250E943025FB0101900020E9F785
:102DD0003197AF01461B570BDC01ED91FC9102804E
:102DE000F381E02D09948F929F92AF92BF92EF9260
:102DF000FF920F931F93CF93DF93CDB7DEB7A197C9
:102E00000FB6F894DEBF0FBECDBF7C01FA01CB0137
:102E100019A2223008F42AE08E010F5D1F4F822E86
:102E2000912CB12CA12CBF01A50194010E949121EC
:102E3000F901CA016A300CF5605DD8016E938D010D
:102E4000232B242B252B79F790E080E0109721F09D
:102E5000BD01C7010E94E416A1960FB6F894DEBF2B
:102E60000FBECDBFDF91CF911F910F91FF90EF90DB
:102E7000BF90AF909F908F900895695CDECF2F92A6
:102E80003F924F925F926F927F928F929F92AF92FA
:102E9000BF92CF92DF92EF92FF921F93CF93DF9377
:102EA000EC016A017B01722EAB019601CB01B601E8
:102EB0000E94002467E571E0811126C04601570198
:102EC000E894B7F82FEF3FEF4FE75FE7C501B40194
:102ED0000E94002481110CC02FEF3FEF4FE75FE706
:102EE000C501B4010E942F226BE571E0181664F051
:102EF0002FEF3FEF4FE75FE4C701B6010E948E233B
:102F00001816B4F46FE571E0CE01DF91CF911F91F7
:102F1000FF90EF90DF90CF90BF90AF909F908F90F9
:102F20007F906F905F904F903F902F900C94E4169D
:102F30002FEF3FEF4FE75FECC701B6010E942F2252
:102F400087FDE0CF20E030E0A901C701B6010E9473
:102F50002F22312C212C87FF0DC0E881F9810190AF
:102F6000F081E02D6DE2CE0109951C01F7FAF09495
:102F7000F7F8F09410E060E070E080E09FE37116F5
:102F800041F020E030E040E251E40E9434221F5F33
:102F9000F6CFA70196010E94C3212B013C010E949C
:102FA000AD224B015C012AE0BC01A401CE010E94CC
:102FB000F3167C01E20CF31C1123E1F1C501B4010D
:102FC0000E94DC229B01AC01C301B2010E94C2211C
:102FD0004B015C01E881F9810190F081E02D6EE206
:102FE000CE010995E80EF91E115020F120E030E0E5
:102FF00040E251E4C501B4010E9493232B013C013E
:103000000E94AD224B01B12CA12C2AE0B501A401F4
:10301000CE010E94F316E80EF91EC501B4010E940C
:10302000DC229B01AC01C301B2010E94C2214B0111
:103030005C01DACFC701DF91CF911F91FF90EF9034
:10304000DF90CF90BF90AF909F908F907F906F90C8
:103050005F904F903F902F9008950C943F170F93DF
:103060001F93CF93DF93EC010E94E4168C0163E67B
:1030700071E0CE010E94E416800F911FDF91CF9185
:103080001F910F9108950C94E41685ED8093BC0078
:1030900080915D0290915E02A0915F02B09160020A
:1030A0000796A11DB11D23E0B695A7959795879525
:1030B0002A95D1F72091BC0024FD03C01092A602EE
:1030C000089540915D0250915E0260915F0270919F
:1030D0006002452B462B472B69F30097A105B105EC
:1030E00041F02AE22A95F1F700C00197A109B10940
:1030F000E1CF80915C020C9494121F920F920FB654
:103100000F9211242F933F934F935F936F937F936D
:103110008F939F93AF93BF93EF93FF938091E502BB
:103120009091E602A091E702B091E802892B8A2BE8
:103130008B2BD1F19091E002E091E102F091E2025B
:103140008081892780838091E5029091E602A09199
:10315000E702B091E802181619061A061B069CF43D
:103160008091E5029091E602A091E702B091E80219
:103170000197A109B1098093E5029093E602A0931B
:10318000E702B093E802FF91EF91BF91AF919F9159
:103190008F917F916F915F914F913F912F910F9000
:1031A0000FBE0F901F901895809100010E9412078A
:1031B000EACF1F920F920FB60F9211242F933F93D5
:1031C0004F935F936F937F938F939F93AF93BF932F
:1031D000EF93FF9381EF92E00E943706FF91EF910A
:1031E000BF91AF919F918F917F916F915F914F911F
:1031F0003F912F910F900FBE0F901F9018951F9227
:103200000F920FB60F9211242F938F939F93EF93EA
:10321000FF93E0910103F09102038081E0910703A5
:10322000F091080382FD1BC0908180910A038F5F9B
:103230008F7320910B03821741F0E0910A03F0E0B5
:10324000EF50FD4F958F80930A03FF91EF919F916F
:103250008F912F910F900FBE0F901F901895808126
:10326000F4CF1F920F920FB60F9211242F933F931A
:103270008F939F93AF93BF938091D8029091D9027F
:10328000A091DA02B091DB023091CC0223E0230F4F
:103290002D3758F50196A11DB11D2093CC028093C6
:1032A000D8029093D902A093DA02B093DB02809106
:1032B000CD029091CE02A091CF02B091D0020196A2
:1032C000A11DB11D8093CD029093CE02A093CF0299
:1032D000B093D002BF91AF919F918F913F912F9169
:1032E0000F900FBE0F901F90189526E8230F02969F
:1032F000A11DB11DD2CF1F920F920FB60F921124B4
:103300002F933F934F935F936F937F938F939F93ED
:10331000AF93BF93EF93FF938091B900887F80367E
:1033200009F44AC0F0F5883209F4A7C018F58031D5
:1033300009F49BC0B8F4882309F4F9C0883009F473
:1033400094C0FF91EF91BF91AF919F918F917F9129
:103350006F915F914F913F912F910F900FBE0F9002
:103360001F901895883109F488C0803251F78093F6
:10337000A50214C0803409F49DC040F48033B9F331
:103380008833F9F68093A50285ECB0C0803509F446
:1033900085C0883509F496C0883499F60E9445188E
:1033A000D0CF883909F48CC038F5883729F050F42B
:1033B000883611F0803729F683E08093A6021092B8
:1033C000A40257C0883809F47BC0803919F08038CE
:1033D00009F0B7CF8091A402803208F071C0E0916B
:1033E000A40281E08E0F8093A4028091BB00F0E0E4
:1033F000EC57FD4F80833DC0803B39F0E0F4803ACC
:1034000009F479C0883A09F09CCF84E08093A60241
:103410001092830210928202E091D402F091D502C0
:1034200009958091820281110FC081E08093820210
:103430001092620209C0803C09F4A6CF883C09F4CE
:10344000A3CF883B09F07DCFE091830281E08E0F0E
:1034500080938302F0E0EE59FD4F80818093BB00A2
:10346000909183028091820229C08091CB02809347
:10347000BB0085EC8093BC0064CF9091CA02809120
:10348000C902981758F5E091CA0281E08E0F809327
:10349000CA02F0E0E755FD4F8081E9CFE091CA0212
:1034A00081E08E0F8093CA028091BB00F0E0E75567
:1034B000FD4F80839091CA028091C9029817C8F28B
:1034C00085E8D8CFE091CA0281E08E0F8093CA02CE
:1034D0008091BB00F0E0E755FD4F80838091A8020A
:1034E00081115CCF81E08093A70284EA8093BC00C5
:1034F0001092A60226CF85EC8093BC001092A60203
:103500008091A402803230F4E091A402F0E0EC5704
:10351000FD4F10826091A40270E0E091D202F09120
:10352000D30284E892E009951092A4020ACF109287
:10353000A50234CFCF93DF93E1EFF2E01382128242
:1035400088EE93E0A0E0B0E084839583A683B78300
:103550002BE031E03183208325EC30E03587248770
:1035600024EC30E03787268720EC30E0318B208B4D
:1035700021EC30E0338B228B22EC30E0358B248B36
:1035800026EC30E0378B268B118E128E138E148E24
:10359000CEE8D3E01B821A828C839D83AE83BF83E7
:1035A0008DE191E099838883AAEDB3E08FE01596D1
:1035B0008C9315978BE016968C931697EFE9FAE0AB
:1035C000E4911796EC931797EBE8FAE0E4911896DC
:1035D000EC93189740E85EE360E070E01D964D9331
:1035E0005D936D937C935097EAE9F3E01382128226
:1035F00020E830E03583248380E490E0978386835D
:103600003187208793878287168A158614861786C6
:10361000168681E0858B848B2FEF3FEF338B228BD7
:10362000318B208B878B108E128E118E8FE291E062
:1036300091838083148E138ED68FC58F10A2178E20
:103640008FEF84A385A386A387A380A780E89AE150
:10365000A6E0B0E085AB96ABA7ABB0AF80EA96E84A
:10366000A1E0B0E081AF92AFA3AFB4AF80E586AF89
:1036700017AEDF91CF910895CF93DF9300D000D0A4
:10368000CDB7DEB7789484B5826084BD84B581609F
:1036900084BD85B5826085BD85B5816085BD80911D
:1036A0006E00816080936E00109281008091810095
:1036B000826080938100809181008160809381008D
:1036C000809180008160809380008091B10084604F
:1036D0008093B1008091B00081608093B0008091B0
:1036E0007A00846080937A0080917A00826080936F
:1036F0007A0080917A00816080937A0080917A00CC
:10370000806880937A001092C10061E082E00E949C
:103710003E07E0910103F091020382E08083E09193
:10372000FD02F091FE021082E091FF02F091000391
:103730008FEC808310920903E0910503F09106035A
:1037400086E08083E0910303F0910403808180612F
:103750008083E0910303F09104038081886080837B
:10376000E0910303F0910403808180688083E091FD
:103770000303F091040380818F7D808361E085E005
:103780000E943E078091B9039091BA03892B11F1F1
:103790000E94C2162091A0033091A10380919E0344
:1037A00090919F03213231050CF052C0B901605253
:1037B000710977FF02C06F5F7F4F759567958357DB
:1037C000910997FD019600E210E023E730E044E91B
:1037D00055E051C02091A0033091A103C901079683
:1037E00097FD0796B3E095958795BA95E1F72091F7
:1037F0009E0330919F03AC01429FC001439F900DF7
:10380000529F900D11240E940B249093BA03809331
:10381000B903892B09F0BCCF44E35AE05A834983AA
:10382000E981FA816491662361F081EF92E00E9460
:10383000590629813A812F5F3F4F3A832983892B8B
:1038400079F763E671E081EF92E00E94E416FFCF22
:10385000B9016054710977FF02C06F5F7F4F7595A2
:1038600067958255910997FD019600E410E022E5E5
:1038700030E044E757E0959587950E94401182E03B
:103880008093BC038091B7039091B803892B09F40E
:1038900052C28CE38093BB031092D7021092D602DF
:1038A0001092DD021092DC020E94761287EB95E006
:1038B0009093D5028093D40288EB95E09093D30245
:1038C0008093D2028091C20387FD1EC061E00E94F6
:1038D0003E0761E08091C2030E94C60661E070E08D
:1038E00080E090E00E94B70860E08091C2030E94EF
:1038F000C6066AE070E080E090E00E94B70861E0F0
:103900008091C2030E94C6068091B7039091B803CC
:10391000892B09F4D1C22091CF033091D00340917B
:10392000D1035091D20360E074E284EF90E00E94F2
:1039300091212051310941095109569547953795F3
:1039400027952093B80064E080E995E00E94211457
:103950006091A00361508AE993E00E94D61464E06C
:103960008CE895E00E9421148091BC0360E18130D5
:1039700009F064E18AE993E00E94D61464E088E8E3
:1039800095E00E9421148FE88093D70380919E03D5
:1039900090919F038038910509F0A7C28091A00300
:1039A0009091A1038034910509F0B4C28091BC03C9
:1039B000813009F098C28FE98093D70392E199830F
:1039C0006AED8AE993E00E94D61469818AE993E05E
:1039D0000E94D61461E88AE993E00E94D6146091AF
:1039E000D7038AE993E00E94D61469ED8AE993E04F
:1039F0000E94D6148091BC0362E2813009F061EF2D
:103A00008AE993E00E94D61466E082E895E00E947D
:103A100021148091B7039091B803892B09F483C2D4
:103A20002091D3033091D4034091D5035091D60314
:103A300060E074E284EF90E00E949121205131090E
:103A40004109510956954795379527952093B80018
:103A500080ED97E00E946F0764EF71E080E090E0F6
:103A60000E94B70882E00E9412070E94C21682E0FC
:103A70008093AE038093AF0381E090E09093AD0319
:103A80008093AC039093AB038093AA031092A70397
:103A90001092A6038AE090E09093A9038093A80374
:103AA00066E671E08AE993E00E942F1860E771E012
:103AB0008AE993E00E942F186BE771E08AE993E0AE
:103AC0000E9443180E94381568E873E180E090E096
:103AD0000E94B7080E94C21688EE93E00E946F070A
:103AE00064EF71E080E090E00E94B70882E00E94FD
:103AF000120733E5232E3AE0332E80E10E9480083E
:103B00009C01990F440B550B265631094109510967
:103B1000A4E6B0E00E947E2123E333E040E050E0E1
:103B20000E945F21CA01B9010E94DE222B013C01E3
:103B30002CE934E34DE85DE30E9493236B017C01A3
:103B400065E871E081EF92E00E94431822E030E0E6
:103B5000B701A60181EF92E00E942D1861E971E0A2
:103B600081EF92E00E942F1865E871E08AE993E006
:103B70000E94431822E030E0B701A6018AE993E0F1
:103B80000E942D1861E971E08AE993E00E942F18E4
:103B900067E971E08AE993E00E94431822E030E08F
:103BA000B301A2018AE993E00E942D1863EA71E053
:103BB0008AE993E00E942F1861EA71E08AE993E0B4
:103BC0000E942F188EE00E948008BC01990F880B7C
:103BD000990B0E94DE226B017C0120E030E040EA7C
:103BE00050E40E94932320E030E040E85AE30E9432
:103BF000932369837A838B839C832DEC3CEC4CE488
:103C00005EE30E9434224B015C0168EA71E081EFBF
:103C100092E00E94431822E0B501A40181EF92E0F6
:103C20000E943F1763E671E081EF92E00E94E41684
:103C300066EB71E081EF92E00E94431822E0498137
:103C40005A816B817C8181EF92E00E943F1763E68D
:103C500071E081EF92E00E94E41665EC71E08AE980
:103C600093E00E94431822E030E0B501A4018AE904
:103C700093E00E942D1860ED71E08AE993E00E94C4
:103C80002F1820E030E040E054E4C701B6010E9464
:103C9000C22124EA30E74DE35EE30E94932320E053
:103CA00030E04AE754E40E9434226B017C0163ED6A
:103CB00071E081EF92E00E94431822E030E0B7010A
:103CC000A60181EF92E00E942D186EED71E081EF68
:103CD00092E00E942F1863ED71E08AE993E00E9460
:103CE000431822E030E0B701A6018AE993E00E9480
:103CF0002D186EED71E08AE993E00E942F1861EAB9
:103D000071E08AE993E00E942F180E94E908882355
:103D100059F08091E0038B3038F08D3008F40DC1FC
:103D20008551823008F43AC1812C912C20ECA22ECE
:103D30002FE7B22E20C161E08091C0030E943E07B0
:103D400061E08091C1030E943E078091C003082E6C
:103D5000000C990BFC01E458F54FE491F0E0EE0FF4
:103D6000FF1FEF58F54F259134913093C8032093EE
:103D7000C703FC01E057F54FE491E093CD03809138
:103D8000C103082E000C990BFC01E458F54FE49197
:103D9000F0E0EE0FFF1FEF58F54FA591B491B093EF
:103DA000CA03A093C903FC01E057F54FE491E093E7
:103DB000CE038C91E82BEC938091B5039091B603E0
:103DC000892B09F436C05FB75983F8948091D102EA
:103DD000811127C0E6E8FAE08491EAE9FAE09491DB
:103DE000E82FF0E0EE0FFF1FE858FA4FA591B491CD
:103DF000EC91E92321F461E08AE00E94C60661E0CB
:103E00008AE00E943E078CB580618CBD8CB58064D1
:103E10008CBD61E08DE00E943E0761E08BE00E9476
:103E20003E078091D1028F5F8093D10289818FBF3D
:103E300049CD61E08091BE030E943E0761E0809120
:103E4000BF030E943E078091BE03082E000C990B11
:103E5000FC01E458F54FE491F0E0EE0FFF1FEF583E
:103E6000F54F259134913093C4032093C303FC0193
:103E7000E057F54FE491E093CB038091BF03082E08
:103E8000000C990BFC01E458F54FE491F0E0EE0FC3
:103E9000FF1FEF58F54FA591B491B093C603A093BF
:103EA000C503FC01E057F54FE491E093CC038C91FE
:103EB000E095E823EC9306CD8091B5039091B6038D
:103EC000892B31F08091D8039091D9030E94560C30
:103ED000E091C903F091CA0390818091CE0380954F
:103EE0008923808330CD8FEC67CD80369105A9F48E
:103EF0008091A0039091A103409791F48091BC031D
:103F0000813031F480E18093D703E2E0E98358CD3A
:103F10008FEAF9CFF2E0F98353CD22E0298350CD27
:103F200032E039834DCDE091C903F091CA0380811D
:103F30009091CE03892B80838BCD6091DB0370E061
:103F400090E080E00E94DE222DEC3CEC4CEC5DE346
:103F50000E9493236B017C016091DA0370E090E092
:103F600080E00E94DE229B01AC01C701B6010E94E5
:103F7000C3214B015C010E94E908882341F0809134
:103F8000E0038C3009F41FC1D8F48B3091F1C12CBF
:103F9000D12C80ECE82E8FE7F82E55C06091DA0323
:103FA0007091DB0376276727762790E080E00E94F8
:103FB000DC222DEC3CEC4CEC5DE30E949323D9CF4A
:103FC0008551823020F71091DC03612F70E0762F4D
:103FD000662766277F778091DD03682B90E080E07D
:103FE0000E94DC222DEC3CEC4CEC5DE30E94932320
:103FF00006C16091DC0370E090E080E00E94DC226A
:104000006B017C011091DD0317FF0AC0AC019B011D
:1040100060E070E080E89FEB0E94C2216B017C01B0
:104020001F70612F70E090E080E00E94DE222DEC96
:104030003CEC4CEC5DE30E949323A70196010E94A7
:10404000C3216B017C0161EE71E081EF92E00E947F
:10405000431822E030E0B501A40181EF92E00E9414
:104060002D186DEE71E081EF92E00E94431822E07E
:1040700030E0B701A60181EF92E00E942D186FEFAA
:1040800071E081EF92E00E942F1860EC71E08AE904
:1040900093E00E94431830E020E0B701A6018AE9CE
:1040A00093E00E942D1861EA71E08AE993E00E9492
:1040B000431860EB8AE993E00E94940E61E072E09D
:1040C0008AE993E00E9443186FE971E08AE993E07E
:1040D0000E94431863E072E08AE993E00E9443186B
:1040E00030E020E0B501A4018AE993E00E942D1898
:1040F00068E072E08AE993E00E944318C301B201CC
:104100000E94A6229B01AC01ACEEBFEF0E948C2165
:1041100024E630E040E050E00E945F2169017A012E
:1041200084E4C80ED11CE11CF11C560161E085E05D
:104130000E943E07C114D10409F06AC060E085E026
:104140000E94C6066BE072E081EF92E00E94431885
:104150000D2C000CEE08FF082AE0B701A601F7FEBF
:104160000DC06DE281EF92E00E9459064427552769
:10417000BA014C195D096E097F092AE081EF92E0CE
:104180000E94F31663E671E081EF92E00E94E4166C
:1041900061EA71E081EF92E00E942F180E943815C9
:1041A00068EE73E080E090E00E94B70820E030E025
:1041B000232B09F4A2CC0E942306882309F49DCC6A
:1041C0000E9400009ACC1091DC03612F70E090E017
:1041D00080E00E94DC226B017C016091DD036F7046
:1041E00070E090E080E00E94DE222DEC3CEC4CEC94
:1041F0005DE30E949323A70196010E94C3216B01F6
:104200007C0117FF20CFF7FAF094F7F8F0941BCF5A
:104210009FEFC916D10411F461E091CFF1018491AF
:10422000833021F148F48130B9F08230D1F0F0E8E8
:10423000AF16B1048CF782CF873011F1883041F18D
:104240008430A9F780918000806280938000D092B2
:104250008B00C0928A0076CF84B5806884BDC7BCCD
:1042600071CF84B5806284BDC8BC6CCF8091800062
:10427000806880938000D0928900C092880062CFCD
:104280008091B00080688093B000C092B3005ACF94
:104290008091B00080628093B000C092B40052CF91
:1042A0008FE291E090939B0380939A038091B903EE
:1042B0009091BA03009711F00C94A7240895052E4D
:1042C00097FB1EF400940E94762157FD07D00E94B0
:1042D000912107FC03D04EF40C9476215095409523
:1042E000309521953F4F4F4F5F4F089590958095A2
:1042F000709561957F4F8F4F9F4F08950E94B32116
:10430000A59F900DB49F900DA49F800D911D112429
:104310000895B7FF0C947E210E947E21821B930B8F
:104320000895A1E21A2EAA1BBB1BFD010DC0AA1FF6
:10433000BB1FEE1FFF1FA217B307E407F50720F00E
:10434000A21BB30BE40BF50B661F771F881F991F89
:104350001A9469F760957095809590959B01AC01D2
:10436000BD01CF010895A29FB001B39FC001A39FDB
:10437000700D811D1124911DB29F700D811D11249E
:10438000911D08955058BB27AA270E94DA210C944A
:1043900054230E94462338F00E944D2320F039F424
:1043A0009F3F19F426F40C9443230EF4E095E7FBA9
:1043B0000C943D23E92F0E94652358F3BA17620736
:1043C00073078407950720F079F4A6F50C948723EA
:1043D0000EF4E0950B2EBA2FA02D0B01B901900120
:1043E0000C01CA01A0011124FF27591B99F0593F64
:1043F00050F4503E68F11A16F040A22F232F342FAC
:104400004427585FF3CF469537952795A795F040F9
:104410005395C9F77EF41F16BA0B620B730B840B0E
:10442000BAF09150A1F0FF0FBB1F661F771F881FC6
:10443000C2F70EC0BA0F621F731F841F48F487951E
:1044400077956795B795F7959E3F08F0B0CF939510
:10445000880F08F09927EE0F9795879508950E9489
:10446000192308F481E008950E9448220C945423F3
:104470000E944D2358F00E94462340F029F45F3FEC
:1044800029F00C943D2351110C9488230C94432360
:104490000E94652368F39923B1F3552391F3951B8B
:1044A000550BBB27AA2762177307840738F09F5F55
:1044B0005F4F220F331F441FAA1FA9F335D00E2EC2
:1044C0003AF0E0E832D091505040E695001CCAF72F
:1044D0002BD0FE2F29D0660F771F881FBB1F2617F2
:1044E00037074807AB07B0E809F0BB0B802DBF01C9
:1044F000FF2793585F4F3AF09E3F510578F00C9498
:104500003D230C9488235F3FE4F3983ED4F38695D3
:1045100077956795B795F7959F5FC9F7880F911DB8
:104520009695879597F90895E1E0660F771F881FA4
:10453000BB1F621773078407BA0720F0621B730B57
:10454000840BBA0BEE1F88F7E09508950E94AD2208
:104550006894B1110C94882308950E946D2388F00B
:104560009F5798F0B92F9927B751B0F0E1F0660F37
:10457000771F881F991F1AF0BA95C9F714C0B13078
:1045800091F00E948723B1E008950C948723672F50
:10459000782F8827B85F39F0B93FCCF386957795A7
:1045A0006795B395D9F73EF4909580957095619590
:1045B0007F4F8F4F9F4F0895E89409C097FB3EF4BB
:1045C00090958095709561957F4F8F4F9F4F992360
:1045D000A9F0F92F96E9BB279395F69587957795DE
:1045E0006795B795F111F8CFFAF4BB0F11F460FF9E
:1045F0001BC06F5F7F4F8F4F9F4F16C0882311F0F6
:1046000096E911C0772321F09EE8872F762F05C009
:10461000662371F096E8862F70E060E02AF09A95A4
:10462000660F771F881FDAF7880F9695879597F999
:104630000895990F0008550FAA0BE0E8FEEF161633
:104640001706E807F907C0F012161306E407F50786
:1046500098F0621B730B840B950B39F40A2661F0FA
:10466000232B242B252B21F408950A2609F4A1409D
:10467000A6958FEF811D811D089597F99F6780E8AA
:1046800070E060E008959FEF80EC089500240A94A4
:104690001616170618060906089500240A9412161D
:1046A0001306140605060895092E0394000C11F450
:1046B000882352F0BB0F40F4BF2B11F460FF04C0FD
:1046C0006F5F7F4F8F4F9F4F089557FD9058440F56
:1046D000551F59F05F3F71F04795880F97FB991F61
:1046E00061F09F3F79F0879508951216130614061E
:1046F000551FF2CF4695F1DF08C0161617061806AB
:10470000991FF1CF86957105610508940895E89485
:10471000BB2766277727CB0197F908950E941923B5
:1047200008F48FEF08950E94A6230C9454230E944E
:10473000462338F00E944D2320F0952311F00C946D
:104740003D230C94432311240C9488230E94652359
:1047500070F3959FC1F3950F50E0551F629FF001D4
:10476000729FBB27F00DB11D639FAA27F00DB11DED
:10477000AA1F649F6627B00DA11D661F829F222776
:10478000B00DA11D621F739FB00DA11D621F839FFD
:10479000A00D611D221F749F3327A00D611D231FD3
:1047A000849F600D211D822F762F6A2F11249F5721
:1047B00050409AF0F1F088234AF0EE0FFF1FBB1F24
:1047C000661F771F881F91505040A9F79E3F5105E3
:1047D00080F00C943D230C9488235F3FE4F3983ED3
:1047E000D4F3869577956795B795F795E7959F5F8D
:1047F000C1F7FE2B880F911D9695879597F908951F
:104800000E941923880B990B0895EE0FFF1F059046
:10481000F491E02D09940F931F93CF93DF9382308F
:10482000910510F482E090E0E091EF03F091F00345
:1048300030E020E0B0E0A0E0309799F42115310598
:1048400009F44AC0281B390B24303105D8F58A8178
:104850009B816115710589F1FB0193838283FE01C0
:1048600011C0408151810281138148175907E0F03E
:104870004817590799F4109761F012960C93129704
:1048800013961C933296CF01DF91CF911F910F9118
:1048900008950093EF031093F003F4CF2115310531
:1048A00051F04217530738F0A901DB019A01BD010D
:1048B000DF01F801C1CFEF01F9CF9093F0038093AE
:1048C000EF03CDCFFE01E20FF31F819391932250AE
:1048D000310939832883D7CF2091ED033091EE033E
:1048E000232B41F420910301309104013093EE0316
:1048F0002093ED0320910101309102012115310532
:1049000041F42DB73EB74091050150910601241B9B
:10491000350BE091ED03F091EE03E217F307A0F4FD
:104920002E1B3F0B2817390778F0AC014E5F5F4F05
:104930002417350748F04E0F5F1F5093EE03409346
:10494000ED03819391939FCFF0E0E0E09CCFCF9374
:10495000DF930097E9F0FC01329713821282A09155
:10496000EF03B091F003ED0130E020E01097A1F4E7
:1049700020813181820F931F2091ED033091EE034E
:104980002817390709F061C0F093EE03E093ED03B7
:10499000DF91CF910895EA01CE17DF07E8F54A814C
:1049A0005B819E0141155105B1F7E901FB83EA8363
:1049B00049915991C40FD51FEC17FD0761F480810F
:1049C00091810296840F951FE901998388838281E2
:1049D00093819B838A83F0E0E0E012968D919C9115
:1049E00013970097B9F52D913C911197CD0102963F
:1049F000820F931F2091ED033091EE0328173907A2
:104A000039F6309751F51092F0031092EF03B093FE
:104A1000EE03A093ED03BCCFD383C28340815181C9
:104A2000840F951FC817D90761F44E5F5F4F8881C7
:104A30009981480F591F518340838A819B819383B9
:104A400082832115310509F0B0CFF093F003E09394
:104A5000EF039ECFFD01DC01C0CF13821282D7CFBE
:104A600081E090E0F8940C943C25DC0101C06D934A
:104A700041505040E0F7089515E0C3E5D5E004C08B
:104A8000FE010E9405242196C435D107C9F7F89488
:104A9000FFCFFF0000F1038000000000005906B9BD
:104AA00005E605A6061706F5050906000000000B39
:104AB00013DE12BF167E05D712C412B51200000015
:104AC00000940EB905BF164E129F0B7E05391111C9
:104AD000112D112111A1117E055A0C69160F0B58C9
:104AE0000B5A103D10C50F660F6E616E00696E6641
:104AF000006F7666000D0A002048484F2043656C21
:104B00006C004175746F6D6174696F6E0020205088
:104B1000524F4A4543540050726573737572652055
:104B20003D20002062617273002020202020202080
:104B300020202020002070736900566F6C7461671C
:104B40006520494E203D2000566F6C7461676520DA
:104B50004F5554203D2000566F6C74616765203DB1
:104B6000200020560043757272656E74203D20004F
:104B700020410048756D6964697479203D200025E5
:104B80002C2054656D7065726174757265203D20CE
:104B900000C2B0430048203D20002025006F7574FE
:0E4BA0007075745F502056616C75653A200088
:107800000C94343C0C94513C0C94513C0C94513CE1
:107810000C94513C0C94513C0C94513C0C94513CB4
:107820000C94513C0C94513C0C94513C0C94513CA4
:107830000C94513C0C94513C0C94513C0C94513C94
:107840000C94513C0C94513C0C94513C0C94513C84
:107850000C94513C0C94513C0C94513C0C94513C74
:107860000C94513C0C94513C11241FBECFEFD8E036
:10787000DEBFCDBF11E0A0E0B1E0ECE9FFE702C060
:1078800005900D92A230B107D9F712E0A2E0B1E065
:1078900001C01D92AD30B107E1F70E942D3D0C945F
:1078A000CC3F0C94003C982F959595959595959582
:1078B000905D8F708A307CF0282F295A8091C0000B
:1078C00085FFFCCF9093C6008091C00085FFFCCF60
:1078D0002093C6000895282F205DF0CF982F809127
:1078E000C00085FFFCCF9093C6000895EF92FF92F1
:1078F0000F931F93EE24FF2487018091C00087FD22
:1079000017C00894E11CF11C011D111D81E4E8164B
:1079100082E4F8068FE0080780E0180770F3E09132
:107920000401F091050109958091C00087FFE9CF1E
:107930008091C6001F910F91FF90EF9008950E94D3
:10794000763C982F8091C00085FFFCCF9093C600B5
:1079500091362CF490330CF09053892F089597555D
:10796000892F08951F930E949F3C182F0E949F3CCF
:107970001295107F810F1F9108951F93182F882350
:1079800021F00E94763C1150E1F71F9108951F935A
:10799000182F0E94763C803249F0809103018F5F5E
:1079A000809303018530C1F01F9108958091C0003C
:1079B00085FFFCCF84E18093C6008091C00085FFE5
:1079C000FCCF1093C6008091C00085FFFCCF80E102
:1079D0008093C6001F910895E0910401F091050184
:1079E00009951F9108950E94763C803241F0809164
:1079F00003018F5F80930301853081F008958091AA
:107A0000C00085FFFCCF84E18093C6008091C00058
:107A100085FFFCCF80E18093C6000895E0910401CA
:107A2000F09105010995089540E951E08823A1F0FE
:107A30002D9A28EE33E0FA013197F1F721503040CA
:107A4000D1F72D9828EE33E0FA013197F1F7215064
:107A50003040D1F7815061F708953F924F925F9285
:107A60006F927F928F929F92AF92BF92CF92DF924E
:107A7000EF92FF920F931F93CF93DF93000080E16B
:107A80008093C4001092C50088E18093C10086E015
:107A90008093C2005098589A259A81E00E94143D24
:107AA00024E1F22E9EE1E92E85E9D82E0FE0C02ECA
:107AB00010E1B12EAA24A394B1E49B2EA6E58A2E50
:107AC000F2E57F2EE0E26E2E79E4572E63E5462E36
:107AD00050E5352E0E94763C8033B1F18133B9F107
:107AE000803409F46FC0813409F476C0823409F41B
:107AF00085C0853409F488C0803531F1823521F1A3
:107B0000813511F1853509F485C0863509F48DC0BC
:107B1000843609F496C0843709F403C1853709F423
:107B200072C1863709F466C0809103018F5F80932C
:107B30000301853079F6E0910401F0910501099582
:107B40000E94763C803351F60E94F33CC3CF0E94E2
:107B5000763C803249F78091C00085FFFCCFF092DF
:107B6000C6008091C00085FFFCCF9092C600809136
:107B7000C00085FFFCCF8092C6008091C00085FFC9
:107B8000FCCF7092C6008091C00085FFFCCF609250
:107B9000C6008091C00085FFFCCF5092C600809146
:107BA000C00085FFFCCF4092C6008091C00085FFD9
:107BB000FCCF3092C6008091C00085FFFCCFB09210
:107BC000C60088CF0E94763C863808F4BDCF0E945C
:107BD000763C0E94F33C7ECF0E94763C803809F4CC
:107BE0009CC0813809F40BC1823809F43CC1883942
:107BF00009F48FC080E00E94C73C6CCF84E10E94F2
:107C0000BD3C0E94F33C66CF85E00E94BD3C0E94D3
:107C1000F33C60CF0E94763C809306010E94763C44
:107C2000809307010E94F33C55CF0E94763C80333D
:107C300009F41DC183E00E94BD3C80E00E94C73C66
:107C400049CF0E94763C809309020E94763C809343
:107C5000080280910C028E7F80930C020E94763C79
:107C6000853409F415C18091080290910902892B8D
:107C700089F000E010E00E94763CF801E85FFE4FDA
:107C800080830F5F1F4F80910802909109020817AF
:107C9000190788F30E94763C803209F045CF809125
:107CA0000C0280FF01C16091060170910701660F0F
:107CB000771F7093070160930601A0910802B091AD
:107CC00009021097C9F0E8E0F1E09B01AD014E0F09
:107CD0005F1FF999FECF32BD21BD819180BDFA9A17
:107CE000F99A2F5F3F4FE417F50799F76A0F7B1F4B
:107CF00070930701609306018091C00085FFFCCF5F
:107D0000F092C6008091C00085FFFCCFB092C60003
:107D1000E1CE83E00E94C73CDDCE82E00E94C73CFA
:107D2000D9CE0E94763C809309020E94763C8093D3
:107D300008028091060190910701880F991F909386
:107D40000701809306010E94763C853409F4A6C0A1
:107D500080910C028E7F80930C020E94763C8032D0
:107D600009F0B8CE8091C00085FFFCCFF092C6002C
:107D7000609108027091090261157105B9F140E046
:107D800050E080910C02A82FA170B82FB27011C0E2
:107D9000BB2309F45CC0E0910601F0910701319624
:107DA000F0930701E09306014F5F5F4F46175707B7
:107DB000E8F4AA2369F3F999FECF209106013091E6
:107DC000070132BD21BDF89A90B58091C00085FFB2
:107DD000FCCF9093C6002F5F3F4F30930701209355
:107DE00006014F5F5F4F4617570718F38091C00099
:107DF00085FDE5CE8091C00085FFF8CFE0CE81E023
:107E00000E94C73C67CE0E94763C803209F08CCE3F
:107E10008091C00085FFFCCFF092C6008091C00029
:107E200085FFFCCFE092C6008091C00085FFFCCFAB
:107E3000D092C6008091C00085FFFCCFC092C600E2
:107E40008091C00085FFFCCFB092C60043CEE09188
:107E50000601F091070194918091C00085FFFCCF4D
:107E60009093C6009CCF80E10E94C73C33CE0E9415
:107E7000763C0E94763C182F0E94763C112309F430
:107E800083C0113009F484C08FE00E94C73C22CE29
:107E900080910C02816080930C02E5CE80910C02EF
:107EA000816080930C0259CF809107018823880F4D
:107EB000880B8A2180930B02809106019091070123
:107EC000880F991F90930701809306018091080203
:107ED00080FF09C080910802909109020196909359
:107EE000090280930802F894F999FECF1127E091D6
:107EF0000601F0910701C8E0D1E08091080290915D
:107F00000902103091F40091570001700130D9F34B
:107F100003E000935700E89500915700017001308D
:107F2000D9F301E100935700E89509901990009169
:107F3000570001700130D9F301E000935700E89534
:107F40001395103498F011270091570001700130FB
:107F5000D9F305E000935700E895009157000170B0
:107F60000130D9F301E100935700E895329602976A
:107F700009F0C7CF103011F00296E5CF112480919F
:107F8000C00085FFB9CEBCCE8EE10E94C73CA2CD19
:0E7F900085E90E94C73C9ECDF894FFCF80008B
:00000001FF
